{
  "_format": "hh-sol-artifact-1",
  "contractName": "PrivacyRegulatoryReporting",
  "sourceName": "contracts/PrivacyRegulatoryReporting.sol",
  "abi": [
    {
      "inputs": [
        {
          "internalType": "address",
          "name": "_regulator",
          "type": "address"
        }
      ],
      "stateMutability": "nonpayable",
      "type": "constructor"
    },
    {
      "anonymous": false,
      "inputs": [
        {
          "indexed": true,
          "internalType": "address",
          "name": "entity",
          "type": "address"
        }
      ],
      "name": "EntityAuthorized",
      "type": "event"
    },
    {
      "anonymous": false,
      "inputs": [
        {
          "indexed": true,
          "internalType": "address",
          "name": "entity",
          "type": "address"
        }
      ],
      "name": "EntityRevoked",
      "type": "event"
    },
    {
      "anonymous": false,
      "inputs": [
        {
          "indexed": true,
          "internalType": "address",
          "name": "submitter",
          "type": "address"
        },
        {
          "indexed": true,
          "internalType": "uint256",
          "name": "reportId",
          "type": "uint256"
        },
        {
          "indexed": true,
          "internalType": "uint256",
          "name": "period",
          "type": "uint256"
        }
      ],
      "name": "ReportSubmitted",
      "type": "event"
    },
    {
      "anonymous": false,
      "inputs": [
        {
          "indexed": true,
          "internalType": "uint256",
          "name": "reportId",
          "type": "uint256"
        },
        {
          "indexed": true,
          "internalType": "address",
          "name": "verifier",
          "type": "address"
        }
      ],
      "name": "ReportVerified",
      "type": "event"
    },
    {
      "anonymous": false,
      "inputs": [
        {
          "indexed": true,
          "internalType": "uint256",
          "name": "period",
          "type": "uint256"
        },
        {
          "indexed": false,
          "internalType": "uint256",
          "name": "startTime",
          "type": "uint256"
        },
        {
          "indexed": false,
          "internalType": "uint256",
          "name": "endTime",
          "type": "uint256"
        }
      ],
      "name": "ReportingPeriodCreated",
      "type": "event"
    },
    {
      "inputs": [
        {
          "internalType": "address",
          "name": "entity",
          "type": "address"
        }
      ],
      "name": "authorizeEntity",
      "outputs": [],
      "stateMutability": "nonpayable",
      "type": "function"
    },
    {
      "inputs": [
        {
          "internalType": "address",
          "name": "",
          "type": "address"
        }
      ],
      "name": "authorizedEntities",
      "outputs": [
        {
          "internalType": "bool",
          "name": "",
          "type": "bool"
        }
      ],
      "stateMutability": "view",
      "type": "function"
    },
    {
      "inputs": [
        {
          "internalType": "uint256",
          "name": "periodId",
          "type": "uint256"
        }
      ],
      "name": "closePeriod",
      "outputs": [],
      "stateMutability": "nonpayable",
      "type": "function"
    },
    {
      "inputs": [
        {
          "internalType": "uint256",
          "name": "duration",
          "type": "uint256"
        },
        {
          "internalType": "uint256",
          "name": "submissionDeadlineDays",
          "type": "uint256"
        }
      ],
      "name": "createReportingPeriod",
      "outputs": [],
      "stateMutability": "nonpayable",
      "type": "function"
    },
    {
      "inputs": [],
      "name": "currentPeriod",
      "outputs": [
        {
          "internalType": "uint256",
          "name": "",
          "type": "uint256"
        }
      ],
      "stateMutability": "view",
      "type": "function"
    },
    {
      "inputs": [],
      "name": "getCurrentPeriod",
      "outputs": [
        {
          "internalType": "uint256",
          "name": "",
          "type": "uint256"
        }
      ],
      "stateMutability": "view",
      "type": "function"
    },
    {
      "inputs": [
        {
          "internalType": "uint256",
          "name": "periodId",
          "type": "uint256"
        }
      ],
      "name": "getPeriodInfo",
      "outputs": [
        {
          "internalType": "uint256",
          "name": "startTime",
          "type": "uint256"
        },
        {
          "internalType": "uint256",
          "name": "endTime",
          "type": "uint256"
        },
        {
          "internalType": "bool",
          "name": "active",
          "type": "bool"
        },
        {
          "internalType": "uint256",
          "name": "submissionDeadline",
          "type": "uint256"
        },
        {
          "internalType": "uint256",
          "name": "totalSubmissions",
          "type": "uint256"
        }
      ],
      "stateMutability": "view",
      "type": "function"
    },
    {
      "inputs": [
        {
          "internalType": "uint256",
          "name": "reportId",
          "type": "uint256"
        }
      ],
      "name": "getReportInfo",
      "outputs": [
        {
          "internalType": "address",
          "name": "submitter",
          "type": "address"
        },
        {
          "internalType": "uint256",
          "name": "timestamp",
          "type": "uint256"
        },
        {
          "internalType": "uint256",
          "name": "reportPeriod",
          "type": "uint256"
        },
        {
          "internalType": "bool",
          "name": "verified",
          "type": "bool"
        },
        {
          "internalType": "bool",
          "name": "processed",
          "type": "bool"
        }
      ],
      "stateMutability": "view",
      "type": "function"
    },
    {
      "inputs": [
        {
          "internalType": "uint256",
          "name": "periodId",
          "type": "uint256"
        }
      ],
      "name": "getSubmissionDeadline",
      "outputs": [
        {
          "internalType": "uint256",
          "name": "",
          "type": "uint256"
        }
      ],
      "stateMutability": "view",
      "type": "function"
    },
    {
      "inputs": [],
      "name": "getTotalReports",
      "outputs": [
        {
          "internalType": "uint256",
          "name": "",
          "type": "uint256"
        }
      ],
      "stateMutability": "view",
      "type": "function"
    },
    {
      "inputs": [
        {
          "internalType": "uint256",
          "name": "reportId",
          "type": "uint256"
        },
        {
          "internalType": "address",
          "name": "analyst",
          "type": "address"
        }
      ],
      "name": "grantDecryptionAccess",
      "outputs": [],
      "stateMutability": "nonpayable",
      "type": "function"
    },
    {
      "inputs": [
        {
          "internalType": "address",
          "name": "entity",
          "type": "address"
        },
        {
          "internalType": "uint256",
          "name": "periodId",
          "type": "uint256"
        }
      ],
      "name": "hasEntitySubmitted",
      "outputs": [
        {
          "internalType": "bool",
          "name": "",
          "type": "bool"
        }
      ],
      "stateMutability": "view",
      "type": "function"
    },
    {
      "inputs": [
        {
          "internalType": "address",
          "name": "",
          "type": "address"
        },
        {
          "internalType": "uint256",
          "name": "",
          "type": "uint256"
        }
      ],
      "name": "hasSubmitted",
      "outputs": [
        {
          "internalType": "bool",
          "name": "",
          "type": "bool"
        }
      ],
      "stateMutability": "view",
      "type": "function"
    },
    {
      "inputs": [
        {
          "internalType": "address",
          "name": "entity",
          "type": "address"
        }
      ],
      "name": "isAuthorizedEntity",
      "outputs": [
        {
          "internalType": "bool",
          "name": "",
          "type": "bool"
        }
      ],
      "stateMutability": "view",
      "type": "function"
    },
    {
      "inputs": [],
      "name": "owner",
      "outputs": [
        {
          "internalType": "address",
          "name": "",
          "type": "address"
        }
      ],
      "stateMutability": "view",
      "type": "function"
    },
    {
      "inputs": [
        {
          "internalType": "uint256",
          "name": "reportId",
          "type": "uint256"
        }
      ],
      "name": "processReport",
      "outputs": [],
      "stateMutability": "nonpayable",
      "type": "function"
    },
    {
      "inputs": [],
      "name": "regulator",
      "outputs": [
        {
          "internalType": "address",
          "name": "",
          "type": "address"
        }
      ],
      "stateMutability": "view",
      "type": "function"
    },
    {
      "inputs": [],
      "name": "reportCounter",
      "outputs": [
        {
          "internalType": "uint256",
          "name": "",
          "type": "uint256"
        }
      ],
      "stateMutability": "view",
      "type": "function"
    },
    {
      "inputs": [
        {
          "internalType": "uint256",
          "name": "",
          "type": "uint256"
        }
      ],
      "name": "reportingPeriods",
      "outputs": [
        {
          "internalType": "uint256",
          "name": "startTime",
          "type": "uint256"
        },
        {
          "internalType": "uint256",
          "name": "endTime",
          "type": "uint256"
        },
        {
          "internalType": "bool",
          "name": "active",
          "type": "bool"
        },
        {
          "internalType": "uint256",
          "name": "submissionDeadline",
          "type": "uint256"
        },
        {
          "internalType": "uint256",
          "name": "totalSubmissions",
          "type": "uint256"
        }
      ],
      "stateMutability": "view",
      "type": "function"
    },
    {
      "inputs": [
        {
          "internalType": "uint256",
          "name": "",
          "type": "uint256"
        }
      ],
      "name": "reports",
      "outputs": [
        {
          "internalType": "euint64",
          "name": "encryptedAmount",
          "type": "uint256"
        },
        {
          "internalType": "euint32",
          "name": "encryptedTransactionCount",
          "type": "uint256"
        },
        {
          "internalType": "euint8",
          "name": "encryptedRiskScore",
          "type": "uint256"
        },
        {
          "internalType": "address",
          "name": "submitter",
          "type": "address"
        },
        {
          "internalType": "uint256",
          "name": "timestamp",
          "type": "uint256"
        },
        {
          "internalType": "uint256",
          "name": "reportPeriod",
          "type": "uint256"
        },
        {
          "internalType": "bool",
          "name": "verified",
          "type": "bool"
        },
        {
          "internalType": "bool",
          "name": "processed",
          "type": "bool"
        }
      ],
      "stateMutability": "view",
      "type": "function"
    },
    {
      "inputs": [
        {
          "internalType": "address",
          "name": "entity",
          "type": "address"
        }
      ],
      "name": "revokeEntity",
      "outputs": [],
      "stateMutability": "nonpayable",
      "type": "function"
    },
    {
      "inputs": [],
      "name": "submissionWindow",
      "outputs": [
        {
          "internalType": "uint256",
          "name": "",
          "type": "uint256"
        }
      ],
      "stateMutability": "view",
      "type": "function"
    },
    {
      "inputs": [
        {
          "internalType": "uint64",
          "name": "totalAmount",
          "type": "uint64"
        },
        {
          "internalType": "uint32",
          "name": "transactionCount",
          "type": "uint32"
        },
        {
          "internalType": "uint8",
          "name": "riskScore",
          "type": "uint8"
        },
        {
          "internalType": "uint256",
          "name": "periodId",
          "type": "uint256"
        }
      ],
      "name": "submitConfidentialReport",
      "outputs": [],
      "stateMutability": "nonpayable",
      "type": "function"
    },
    {
      "inputs": [
        {
          "internalType": "address",
          "name": "newRegulator",
          "type": "address"
        }
      ],
      "name": "updateRegulator",
      "outputs": [],
      "stateMutability": "nonpayable",
      "type": "function"
    },
    {
      "inputs": [
        {
          "internalType": "uint256",
          "name": "reportId",
          "type": "uint256"
        }
      ],
      "name": "verifyReport",
      "outputs": [],
      "stateMutability": "nonpayable",
      "type": "function"
    }
  ],
  "bytecode": "0x60806040523480156200001157600080fd5b50604051620018733803806200187383398101604081905262000034916200018b565b60018054336001600160a01b0319918216178255600080549091166001600160a01b03841617815560025562278d006003556008556040805160a081019091524280825260208201906200008c906276a700620001cb565b815260200160011515815260200160035442620000aa9190620001cb565b81526000602091820181905260088054825260058352604091829020845181559284015160018401559083015160028301805460ff191691151591909117905560608301516003830155608090920151600490910155547f8d751377242edb4bdd1c6b5b27ff91f1be8e3210551c15d2d07b8faaa7d79a344262000132816276a700620001cb565b60405162000142929190620001e1565b60405180910390a250620001f5565b60006001600160a01b0382165b92915050565b6200016f8162000151565b81146200017b57600080fd5b50565b80516200015e8162000164565b600060208284031215620001a257620001a2600080fd5b620001ae83836200017e565b9392505050565b634e487b7160e01b600052601160045260246000fd5b808201808211156200015e576200015e620001b5565b82815260408101620001ae60208301849052565b61166e80620002056000396000f3fe608060405234801561001057600080fd5b50600436106101735760003560e01c806382a04855116100de578063d7b71f5f11610097578063e2a6069011610071578063e2a606901461041a578063e621dbc71461042d578063f05bc18e14610436578063fbf3ca671461045957600080fd5b8063d7b71f5f146103e1578063dd8fee14146103f4578063ddf427a11461040757600080fd5b806382a04855146103135780638da5cb5b14610326578063a36d998014610346578063b9bc38f214610359578063c942adf714610362578063d4e99500146103d957600080fd5b80632af2311d116101305780632af2311d1461022c57806333616eee1461026d57806334d65efd1461029d57806336fdc72b146102c95780637fa601a0146102dc57806380300e961461030057600080fd5b80630203102414610178578063060406181461018d57806307a547c2146101ac578063086146d2146101bf57806309208a75146101c75780631fbe68b3146101da575b600080fd5b61018b610186366004610e99565b610487565b005b61019660085481565b6040516101a39190610ec0565b60405180910390f35b61018b6101ba366004610edf565b610506565b600854610196565b61018b6101d5366004610edf565b6105b8565b61021b6101e8366004610edf565b600560205260009081526040902080546001820154600283015460038401546004909401549293919260ff909116919085565b6040516101a3959493929190610f06565b61021b61023a366004610edf565b600090815260056020526040902080546001820154600283015460038401546004909401549294919360ff909116929091565b61029061027b366004610e99565b60076020526000908152604090205460ff1681565b6040516101a39190610f52565b6102906102ab366004610e99565b6001600160a01b031660009081526007602052604090205460ff1690565b61018b6102d7366004610f60565b61068b565b6102ef6102ea366004610edf565b610747565b6040516101a3959493929190610fa1565b61018b61030e366004610fe3565b6107c4565b61018b610321366004610e99565b6108de565b600154610339906001600160a01b031681565b6040516101a39190611012565b610290610354366004611020565b610950565b61019660025481565b6103c5610370366004610edf565b600460208190526000918252604090912080546001820154600283015460038401549484015460058501546006909501549395929491936001600160a01b039093169290919060ff8082169161010090041688565b6040516101a3989796959493929190611058565b600254610196565b61018b6103ef366004610e99565b61097e565b600054610339906001600160a01b031681565b61018b610415366004610edf565b6109f1565b61018b610428366004611115565b610a67565b61019660035481565b610196610444366004610edf565b60009081526005602052604090206003015490565b610290610467366004611020565b600660209081526000928352604080842090915290825290205460ff1681565b6000546001600160a01b031633146104ba5760405162461bcd60e51b81526004016104b1906111b3565b60405180910390fd5b6001600160a01b038116600081815260076020526040808220805460ff19166001179055517fd900914105d2687a75a707cd12ecd9fa52b6e70266117a9e338c3211ac63a2af9190a250565b6000546001600160a01b031633146105305760405162461bcd60e51b81526004016104b1906111b3565b60008181526004602052604090206006015460ff166105615760405162461bcd60e51b81526004016104b1906111ed565b600081815260046020526040902060060154610100900460ff16156105985760405162461bcd60e51b81526004016104b19061122f565b6000908152600460205260409020600601805461ff001916610100179055565b6000546001600160a01b031633146105e25760405162461bcd60e51b81526004016104b1906111b3565b6000811180156105f457506002548111155b6106105760405162461bcd60e51b81526004016104b190611265565b60008181526004602052604090206006015460ff16156106425760405162461bcd60e51b81526004016104b1906112a7565b600081815260046020526040808220600601805460ff1916600117905551339183917fd685fe030a46282a0393c3cd9124e38a9c4cfd1ad727c8491d166ee9df0697b49190a350565b6000546001600160a01b031633146106b55760405162461bcd60e51b81526004016104b1906111b3565b60008281526004602052604090206006015460ff166106e65760405162461bcd60e51b81526004016104b1906112e9565b6001600160a01b03811661070c5760405162461bcd60e51b81526004016104b19061132b565b600082815260046020526040902080546107269083610d38565b610734816001015483610d38565b610742816002015483610d38565b505050565b6000806000806000808611801561076057506002548611155b61077c5760405162461bcd60e51b81526004016104b190611265565b5050506000928352505060046020819052604090912060038101549181015460058201546006909201546001600160a01b0390931693909260ff808216926101009092041690565b6000546001600160a01b031633146107ee5760405162461bcd60e51b81526004016104b1906111b3565b600880549060006107fe83611351565b909155504290506000610811848361136a565b90506000610822846201518061137d565b61082c908461136a565b6040805160a0810182528581526020808201868152600183850181815260608501878152600060808701818152600880548352600590975290889020965187559351928601929092555160028501805460ff191691151591909117905551600384015551600490920191909155549051919250907f8d751377242edb4bdd1c6b5b27ff91f1be8e3210551c15d2d07b8faaa7d79a34906108cf9086908690611394565b60405180910390a25050505050565b6001546001600160a01b031633146109085760405162461bcd60e51b81526004016104b1906113ec565b6001600160a01b03811661092e5760405162461bcd60e51b81526004016104b19061142e565b600080546001600160a01b0319166001600160a01b0392909216919091179055565b6001600160a01b038216600090815260066020908152604080832084845290915290205460ff165b92915050565b6000546001600160a01b031633146109a85760405162461bcd60e51b81526004016104b1906111b3565b6001600160a01b038116600081815260076020526040808220805460ff19169055517f8690b3b66f3b2d8fb674d4b36f56d3c68fcbd17f32f16fb1adb6e54946662ffd9190a250565b6000546001600160a01b03163314610a1b5760405162461bcd60e51b81526004016104b1906111b3565b60008181526005602052604090206002015460ff16610a4c5760405162461bcd60e51b81526004016104b190611468565b6000908152600560205260409020600201805460ff19169055565b3360009081526007602052604090205460ff16610a965760405162461bcd60e51b81526004016104b1906114a8565b6000818152600560205260409020600281015482919060ff16610acb5760405162461bcd60e51b81526004016104b1906114ea565b8060030154421115610aef5760405162461bcd60e51b81526004016104b19061152c565b33600090815260066020908152604080832086845290915290205460ff1615610b2a5760405162461bcd60e51b81526004016104b190611578565b60648460ff161115610b4e5760405162461bcd60e51b81526004016104b1906115b8565b6000610b638767ffffffffffffffff16610d46565b90506000610b768763ffffffff16610d53565b90506000610b868760ff16610d60565b600280549192506000610b9883611351565b909155505060408051610100808201835285825260208083018681528385018681523360608601818152426080880190815260a088018f8152600060c08a0181815260e08b018281526002805484526004808c528e85209d518e5599516001808f01919091559851908d0155945160038c0180546001600160a01b0319166001600160a01b0390921691909117905592518a88015590516005808b019190915591516006998a018054945161ffff1990951691151561ff00191691909117931515909802929092179096559081529483528585208c86528352858520805460ff19169091179055919052918120909101805491610c9483611351565b9190505550610ca38330610d38565b610cad8230610d38565b610cb78130610d38565b600054610cce9084906001600160a01b0316610d38565b600054610ce59083906001600160a01b0316610d38565b600054610cfc9082906001600160a01b0316610d38565b60025460405187919033907fddc0944cb30fe76053c1c744e67f8192c05ef7ad90d81dc1530c8a8eb074eb2e90600090a4505050505050505050565b610d428282610d6d565b5050565b6000610978826005610ddc565b6000610978826004610ddc565b6000610978826002610ddc565b604051631974142760e21b8152732fb4341027eb1d2ad8b5d9708187df8633cafa92906365d0509c90610da690859085906004016115c8565b600060405180830381600087803b158015610dc057600080fd5b505af1158015610dd4573d6000803e3d6000fd5b505050505050565b604051631ce2e8d760e31b81526000907305fd9b5efe0a996095f42ed7e77c390810cf660c9063e71746b890610e1c90869060f887901b906004016115f3565b6020604051808303816000875af1158015610e3b573d6000803e3d6000fd5b505050506040513d601f19601f82011682018060405250810190610e5f9190611619565b9392505050565b60006001600160a01b038216610978565b610e8081610e66565b8114610e8b57600080fd5b50565b803561097881610e77565b600060208284031215610eae57610eae600080fd5b610e5f8383610e8e565b805b82525050565b602081016109788284610eb8565b80610e80565b803561097881610ece565b600060208284031215610ef457610ef4600080fd5b610e5f8383610ed4565b801515610eba565b60a08101610f148288610eb8565b610f216020830187610eb8565b610f2e6040830186610efe565b610f3b6060830185610eb8565b610f486080830184610eb8565b9695505050505050565b602081016109788284610efe565b60008060408385031215610f7657610f76600080fd5b610f808484610ed4565b9150610f8f8460208501610e8e565b90509250929050565b610eba81610e66565b60a08101610faf8288610f98565b610fbc6020830187610eb8565b610fc96040830186610eb8565b610fd66060830185610efe565b610f486080830184610efe565b60008060408385031215610ff957610ff9600080fd5b6110038484610ed4565b9150610f8f8460208501610ed4565b602081016109788284610f98565b6000806040838503121561103657611036600080fd5b6110038484610e8e565b600061097861104c8381565b90565b610eba81611040565b6101008101611067828b61104f565b611074602083018a61104f565b611081604083018961104f565b61108e6060830188610f98565b61109b6080830187610eb8565b6110a860a0830186610eb8565b6110b560c0830185610efe565b6110c260e0830184610efe565b9998505050505050505050565b67ffffffffffffffff8116610e80565b8035610978816110cf565b63ffffffff8116610e80565b8035610978816110ea565b60ff8116610e80565b803561097881611101565b6000806000806080858703121561112e5761112e600080fd5b61113886866110df565b935061114786602087016110f6565b9250611156866040870161110a565b91506111658660608701610ed4565b905092959194509250565b60268152602081017f4f6e6c7920726567756c61746f722063616e20706572666f726d20746869732081526530b1ba34b7b760d11b602082015290505b60400190565b6020808252810161097881611170565b60138152602081017214995c1bdc9d081b9bdd081d995c9a599a5959606a1b815290505b60200190565b60208082528101610978816111c3565b60188152602081017f5265706f727420616c72656164792070726f6365737365640000000000000000815290506111e7565b60208082528101610978816111fd565b601181526020810170125b9d985b1a59081c995c1bdc9d081251607a1b815290506111e7565b602080825281016109788161123f565b60178152602081017f5265706f727420616c7265616479207665726966696564000000000000000000815290506111e7565b6020808252810161097881611275565b601d8152602081017f5265706f7274206d757374206265207665726966696564206669727374000000815290506111e7565b60208082528101610978816112b7565b60178152602081017f496e76616c696420616e616c7973742061646472657373000000000000000000815290506111e7565b60208082528101610978816112f9565b634e487b7160e01b600052601160045260246000fd5b6000600182016113635761136361133b565b5060010190565b808201808211156109785761097861133b565b81810281158282048414176109785761097861133b565b604081016113a28285610eb8565b610e5f6020830184610eb8565b60228152602081017f4f6e6c79206f776e65722063616e20706572666f726d2074686973206163746981526137b760f11b602082015290506111ad565b60208082528101610978816113af565b60198152602081017f496e76616c696420726567756c61746f72206164647265737300000000000000815290506111e7565b60208082528101610978816113fc565b60158152602081017414195c9a5bd908185b1c9958591e4818db1bdcd959605a1b815290506111e7565b602080825281016109788161143e565b60208082527f4e6f7420617574686f72697a656420746f207375626d6974207265706f72747391019081526111e7565b6020808252810161097881611478565b601b8152602081017f5265706f7274696e6720706572696f64206e6f74206163746976650000000000815290506111e7565b60208082528101610978816114b8565b601a8152602081017f5375626d697373696f6e20646561646c696e6520706173736564000000000000815290506111e7565b60208082528101610978816114fa565b60218152602081017f416c7265616479207375626d697474656420666f72207468697320706572696f8152601960fa1b602082015290506111ad565b602080825281016109788161153c565b60208082527f5269736b2073636f7265206d757374206265206265747765656e20302d31303091019081526111e7565b6020808252810161097881611588565b604081016115d68285610eb8565b610e5f6020830184610f98565b6001600160f81b03198116610eba565b604081016116018285610eb8565b610e5f60208301846115e3565b805161097881610ece565b60006020828403121561162e5761162e600080fd5b610e5f838361160e56fea26469706673582212202af0081ba2a92d7770ff1350777a4fc29c1c6e524380dad52477fce1fa0dfa1964736f6c63430008180033",
  "linkReferences": {},
  "deployedLinkReferences": {}
}